{
  "_format": "hh-sol-artifact-1",
  "contractName": "VanGoghNFT",
  "sourceName": "contracts/VanGoghNFT.sol",
  "abi": [
    {
      "inputs": [],
      "stateMutability": "payable",
      "type": "constructor"
    },
    {
      "anonymous": false,
      "inputs": [
        {
          "indexed": true,
          "internalType": "address",
          "name": "owner",
          "type": "address"
        },
        {
          "indexed": true,
          "internalType": "address",
          "name": "approved",
          "type": "address"
        },
        {
          "indexed": true,
          "internalType": "uint256",
          "name": "tokenId",
          "type": "uint256"
        }
      ],
      "name": "Approval",
      "type": "event"
    },
    {
      "anonymous": false,
      "inputs": [
        {
          "indexed": true,
          "internalType": "address",
          "name": "owner",
          "type": "address"
        },
        {
          "indexed": true,
          "internalType": "address",
          "name": "operator",
          "type": "address"
        },
        {
          "indexed": false,
          "internalType": "bool",
          "name": "approved",
          "type": "bool"
        }
      ],
      "name": "ApprovalForAll",
      "type": "event"
    },
    {
      "anonymous": false,
      "inputs": [
        {
          "indexed": true,
          "internalType": "address",
          "name": "previousOwner",
          "type": "address"
        },
        {
          "indexed": true,
          "internalType": "address",
          "name": "newOwner",
          "type": "address"
        }
      ],
      "name": "OwnershipTransferred",
      "type": "event"
    },
    {
      "anonymous": false,
      "inputs": [
        {
          "indexed": true,
          "internalType": "address",
          "name": "from",
          "type": "address"
        },
        {
          "indexed": true,
          "internalType": "address",
          "name": "to",
          "type": "address"
        },
        {
          "indexed": true,
          "internalType": "uint256",
          "name": "tokenId",
          "type": "uint256"
        }
      ],
      "name": "Transfer",
      "type": "event"
    },
    {
      "inputs": [
        {
          "internalType": "address",
          "name": "to",
          "type": "address"
        },
        {
          "internalType": "uint256",
          "name": "tokenId",
          "type": "uint256"
        }
      ],
      "name": "approve",
      "outputs": [],
      "stateMutability": "nonpayable",
      "type": "function"
    },
    {
      "inputs": [
        {
          "internalType": "address",
          "name": "owner",
          "type": "address"
        }
      ],
      "name": "balanceOf",
      "outputs": [
        {
          "internalType": "uint256",
          "name": "",
          "type": "uint256"
        }
      ],
      "stateMutability": "view",
      "type": "function"
    },
    {
      "inputs": [],
      "name": "count",
      "outputs": [
        {
          "internalType": "uint256",
          "name": "",
          "type": "uint256"
        }
      ],
      "stateMutability": "view",
      "type": "function"
    },
    {
      "inputs": [
        {
          "internalType": "uint256",
          "name": "tokenId",
          "type": "uint256"
        }
      ],
      "name": "getApproved",
      "outputs": [
        {
          "internalType": "address",
          "name": "",
          "type": "address"
        }
      ],
      "stateMutability": "view",
      "type": "function"
    },
    {
      "inputs": [
        {
          "internalType": "address",
          "name": "owner",
          "type": "address"
        },
        {
          "internalType": "address",
          "name": "operator",
          "type": "address"
        }
      ],
      "name": "isApprovedForAll",
      "outputs": [
        {
          "internalType": "bool",
          "name": "",
          "type": "bool"
        }
      ],
      "stateMutability": "view",
      "type": "function"
    },
    {
      "inputs": [],
      "name": "isPublicMintEnabled",
      "outputs": [
        {
          "internalType": "bool",
          "name": "",
          "type": "bool"
        }
      ],
      "stateMutability": "view",
      "type": "function"
    },
    {
      "inputs": [
        {
          "internalType": "string",
          "name": "uri",
          "type": "string"
        }
      ],
      "name": "isURIOwned",
      "outputs": [
        {
          "internalType": "bool",
          "name": "",
          "type": "bool"
        }
      ],
      "stateMutability": "view",
      "type": "function"
    },
    {
      "inputs": [],
      "name": "maxPerWallet",
      "outputs": [
        {
          "internalType": "uint256",
          "name": "",
          "type": "uint256"
        }
      ],
      "stateMutability": "view",
      "type": "function"
    },
    {
      "inputs": [],
      "name": "mintPrice",
      "outputs": [
        {
          "internalType": "uint256",
          "name": "",
          "type": "uint256"
        }
      ],
      "stateMutability": "view",
      "type": "function"
    },
    {
      "inputs": [],
      "name": "name",
      "outputs": [
        {
          "internalType": "string",
          "name": "",
          "type": "string"
        }
      ],
      "stateMutability": "view",
      "type": "function"
    },
    {
      "inputs": [],
      "name": "owner",
      "outputs": [
        {
          "internalType": "address",
          "name": "",
          "type": "address"
        }
      ],
      "stateMutability": "view",
      "type": "function"
    },
    {
      "inputs": [
        {
          "internalType": "uint256",
          "name": "tokenId",
          "type": "uint256"
        }
      ],
      "name": "ownerOf",
      "outputs": [
        {
          "internalType": "address",
          "name": "",
          "type": "address"
        }
      ],
      "stateMutability": "view",
      "type": "function"
    },
    {
      "inputs": [
        {
          "internalType": "address",
          "name": "recipient",
          "type": "address"
        },
        {
          "internalType": "string",
          "name": "metadataURI",
          "type": "string"
        }
      ],
      "name": "payToMint",
      "outputs": [
        {
          "internalType": "uint256",
          "name": "",
          "type": "uint256"
        }
      ],
      "stateMutability": "payable",
      "type": "function"
    },
    {
      "inputs": [],
      "name": "renounceOwnership",
      "outputs": [],
      "stateMutability": "nonpayable",
      "type": "function"
    },
    {
      "inputs": [
        {
          "internalType": "address",
          "name": "to",
          "type": "address"
        },
        {
          "internalType": "string",
          "name": "uri",
          "type": "string"
        }
      ],
      "name": "safeMint",
      "outputs": [],
      "stateMutability": "nonpayable",
      "type": "function"
    },
    {
      "inputs": [
        {
          "internalType": "address",
          "name": "from",
          "type": "address"
        },
        {
          "internalType": "address",
          "name": "to",
          "type": "address"
        },
        {
          "internalType": "uint256",
          "name": "tokenId",
          "type": "uint256"
        }
      ],
      "name": "safeTransferFrom",
      "outputs": [],
      "stateMutability": "nonpayable",
      "type": "function"
    },
    {
      "inputs": [
        {
          "internalType": "address",
          "name": "from",
          "type": "address"
        },
        {
          "internalType": "address",
          "name": "to",
          "type": "address"
        },
        {
          "internalType": "uint256",
          "name": "tokenId",
          "type": "uint256"
        },
        {
          "internalType": "bytes",
          "name": "_data",
          "type": "bytes"
        }
      ],
      "name": "safeTransferFrom",
      "outputs": [],
      "stateMutability": "nonpayable",
      "type": "function"
    },
    {
      "inputs": [
        {
          "internalType": "address",
          "name": "operator",
          "type": "address"
        },
        {
          "internalType": "bool",
          "name": "approved",
          "type": "bool"
        }
      ],
      "name": "setApprovalForAll",
      "outputs": [],
      "stateMutability": "nonpayable",
      "type": "function"
    },
    {
      "inputs": [
        {
          "internalType": "bool",
          "name": "_isPublicMintEnabled",
          "type": "bool"
        }
      ],
      "name": "setIsPublicMintEnabled",
      "outputs": [],
      "stateMutability": "nonpayable",
      "type": "function"
    },
    {
      "inputs": [
        {
          "internalType": "bytes4",
          "name": "interfaceId",
          "type": "bytes4"
        }
      ],
      "name": "supportsInterface",
      "outputs": [
        {
          "internalType": "bool",
          "name": "",
          "type": "bool"
        }
      ],
      "stateMutability": "view",
      "type": "function"
    },
    {
      "inputs": [],
      "name": "symbol",
      "outputs": [
        {
          "internalType": "string",
          "name": "",
          "type": "string"
        }
      ],
      "stateMutability": "view",
      "type": "function"
    },
    {
      "inputs": [
        {
          "internalType": "uint256",
          "name": "tokenId",
          "type": "uint256"
        }
      ],
      "name": "tokenURI",
      "outputs": [
        {
          "internalType": "string",
          "name": "",
          "type": "string"
        }
      ],
      "stateMutability": "view",
      "type": "function"
    },
    {
      "inputs": [
        {
          "internalType": "address",
          "name": "from",
          "type": "address"
        },
        {
          "internalType": "address",
          "name": "to",
          "type": "address"
        },
        {
          "internalType": "uint256",
          "name": "tokenId",
          "type": "uint256"
        }
      ],
      "name": "transferFrom",
      "outputs": [],
      "stateMutability": "nonpayable",
      "type": "function"
    },
    {
      "inputs": [
        {
          "internalType": "address",
          "name": "newOwner",
          "type": "address"
        }
      ],
      "name": "transferOwnership",
      "outputs": [],
      "stateMutability": "nonpayable",
      "type": "function"
    },
    {
      "inputs": [
        {
          "internalType": "address",
          "name": "",
          "type": "address"
        }
      ],
      "name": "walletMints",
      "outputs": [
        {
          "internalType": "uint256",
          "name": "",
          "type": "uint256"
        }
      ],
      "stateMutability": "view",
      "type": "function"
    }
  ],
  "bytecode": "0x60806040526040518060400160405280600a81526020017f56616e476f67684e4654000000000000000000000000000000000000000000008152506040518060400160405280600381526020017f56474e0000000000000000000000000000000000000000000000000000000000815250816000908051906020019062000088929190620001ad565b508060019080519060200190620000a1929190620001ad565b505050620000c4620000b8620000df60201b60201c565b620000e760201b60201c565b66470de4df820000600981905550600a8081905550620002c2565b600033905090565b6000600760009054906101000a900473ffffffffffffffffffffffffffffffffffffffff16905081600760006101000a81548173ffffffffffffffffffffffffffffffffffffffff021916908373ffffffffffffffffffffffffffffffffffffffff1602179055508173ffffffffffffffffffffffffffffffffffffffff168173ffffffffffffffffffffffffffffffffffffffff167f8be0079c531659141344cd1fd0a4f28419497f9722a3daafe3b4186f6b6457e060405160405180910390a35050565b828054620001bb906200025d565b90600052602060002090601f016020900481019282620001df57600085556200022b565b82601f10620001fa57805160ff19168380011785556200022b565b828001600101855582156200022b579182015b828111156200022a5782518255916020019190600101906200020d565b5b5090506200023a91906200023e565b5090565b5b80821115620002595760008160009055506001016200023f565b5090565b600060028204905060018216806200027657607f821691505b602082108114156200028d576200028c62000293565b5b50919050565b7f4e487b7100000000000000000000000000000000000000000000000000000000600052602260045260246000fd5b6138c680620002d26000396000f3fe6080604052600436106101665760003560e01c80636817c76c116100d1578063a22cb4651161008a578063d204c45e11610064578063d204c45e14610543578063e985e9c51461056c578063f0293fd3146105a9578063f2fde38b146105e657610166565b8063a22cb465146104b4578063b88d4fde146104dd578063c87b56dd1461050657610166565b80636817c76c146103a257806370a08231146103cd578063715018a61461040a5780638da5cb5b146104215780638eb76d311461044c57806395d89b411461048957610166565b80632373ac22116101235780632373ac221461028f57806323b872dd146102b857806342842e0e146102e1578063453c23101461030a578063615fd9e2146103355780636352211e1461036557610166565b80630116bc2d1461016b57806301ffc9a71461019657806306661abd146101d357806306fdde03146101fe578063081812fc14610229578063095ea7b314610266575b600080fd5b34801561017757600080fd5b5061018061060f565b60405161018d9190612b9d565b60405180910390f35b3480156101a257600080fd5b506101bd60048036038101906101b8919061266d565b610622565b6040516101ca9190612b9d565b60405180910390f35b3480156101df57600080fd5b506101e8610704565b6040516101f59190612e9a565b60405180910390f35b34801561020a57600080fd5b50610213610715565b6040516102209190612bb8565b60405180910390f35b34801561023557600080fd5b50610250600480360381019061024b9190612700565b6107a7565b60405161025d9190612b36565b60405180910390f35b34801561027257600080fd5b5061028d60048036038101906102889190612608565b61082c565b005b34801561029b57600080fd5b506102b660048036038101906102b19190612644565b610944565b005b3480156102c457600080fd5b506102df60048036038101906102da91906124ae565b6109dd565b005b3480156102ed57600080fd5b50610308600480360381019061030391906124ae565b610a3d565b005b34801561031657600080fd5b5061031f610a5d565b60405161032c9190612e9a565b60405180910390f35b61034f600480360381019061034a91906125b4565b610a63565b60405161035c9190612e9a565b60405180910390f35b34801561037157600080fd5b5061038c60048036038101906103879190612700565b610c6e565b6040516103999190612b36565b60405180910390f35b3480156103ae57600080fd5b506103b7610d20565b6040516103c49190612e9a565b60405180910390f35b3480156103d957600080fd5b506103f460048036038101906103ef9190612449565b610d26565b6040516104019190612e9a565b60405180910390f35b34801561041657600080fd5b5061041f610dde565b005b34801561042d57600080fd5b50610436610e66565b6040516104439190612b36565b60405180910390f35b34801561045857600080fd5b50610473600480360381019061046e91906126bf565b610e90565b6040516104809190612b9d565b60405180910390f35b34801561049557600080fd5b5061049e610ecb565b6040516104ab9190612bb8565b60405180910390f35b3480156104c057600080fd5b506104db60048036038101906104d69190612578565b610f5d565b005b3480156104e957600080fd5b5061050460048036038101906104ff91906124fd565b610f73565b005b34801561051257600080fd5b5061052d60048036038101906105289190612700565b610fd5565b60405161053a9190612bb8565b60405180910390f35b34801561054f57600080fd5b5061056a600480360381019061056591906125b4565b610fe7565b005b34801561057857600080fd5b50610593600480360381019061058e9190612472565b6110cc565b6040516105a09190612b9d565b60405180910390f35b3480156105b557600080fd5b506105d060048036038101906105cb9190612449565b611160565b6040516105dd9190612e9a565b60405180910390f35b3480156105f257600080fd5b5061060d60048036038101906106089190612449565b611178565b005b600c60009054906101000a900460ff1681565b60007f80ac58cd000000000000000000000000000000000000000000000000000000007bffffffffffffffffffffffffffffffffffffffffffffffffffffffff1916827bffffffffffffffffffffffffffffffffffffffffffffffffffffffff191614806106ed57507f5b5e139f000000000000000000000000000000000000000000000000000000007bffffffffffffffffffffffffffffffffffffffffffffffffffffffff1916827bffffffffffffffffffffffffffffffffffffffffffffffffffffffff1916145b806106fd57506106fc82611270565b5b9050919050565b600061071060086112da565b905090565b606060008054610724906130f0565b80601f0160208091040260200160405190810160405280929190818152602001828054610750906130f0565b801561079d5780601f106107725761010080835404028352916020019161079d565b820191906000526020600020905b81548152906001019060200180831161078057829003601f168201915b5050505050905090565b60006107b2826112e8565b6107f1576040517f08c379a00000000000000000000000000000000000000000000000000000000081526004016107e890612dba565b60405180910390fd5b6004600083815260200190815260200160002060009054906101000a900473ffffffffffffffffffffffffffffffffffffffff169050919050565b600061083782610c6e565b90508073ffffffffffffffffffffffffffffffffffffffff168373ffffffffffffffffffffffffffffffffffffffff1614156108a8576040517f08c379a000000000000000000000000000000000000000000000000000000000815260040161089f90612e3a565b60405180910390fd5b8073ffffffffffffffffffffffffffffffffffffffff166108c7611354565b73ffffffffffffffffffffffffffffffffffffffff1614806108f657506108f5816108f0611354565b6110cc565b5b610935576040517f08c379a000000000000000000000000000000000000000000000000000000000815260040161092c90612cda565b60405180910390fd5b61093f838361135c565b505050565b61094c611354565b73ffffffffffffffffffffffffffffffffffffffff1661096a610e66565b73ffffffffffffffffffffffffffffffffffffffff16146109c0576040517f08c379a00000000000000000000000000000000000000000000000000000000081526004016109b790612dda565b60405180910390fd5b80600c60006101000a81548160ff02191690831515021790555050565b6109ee6109e8611354565b82611415565b610a2d576040517f08c379a0000000000000000000000000000000000000000000000000000000008152600401610a2490612e5a565b60405180910390fd5b610a388383836114f3565b505050565b610a5883838360405180602001604052806000815250610f73565b505050565b600a5481565b6000600c60009054906101000a900460ff16610ab4576040517f08c379a0000000000000000000000000000000000000000000000000000000008152600401610aab90612dfa565b60405180910390fd5b6001600b83604051610ac69190612afb565b908152602001604051809103902060009054906101000a900460ff1660ff161415610b26576040517f08c379a0000000000000000000000000000000000000000000000000000000008152600401610b1d90612e7a565b60405180910390fd5b66470de4df820000341015610b70576040517f08c379a0000000000000000000000000000000000000000000000000000000008152600401610b6790612bda565b60405180910390fd5b600a546001600d60003373ffffffffffffffffffffffffffffffffffffffff1673ffffffffffffffffffffffffffffffffffffffff16815260200190815260200160002054610bbf9190612f7f565b1115610c00576040517f08c379a0000000000000000000000000000000000000000000000000000000008152600401610bf790612d5a565b60405180910390fd5b6000610c0c60086112da565b9050610c18600861175a565b6001600b84604051610c2a9190612afb565b908152602001604051809103902060006101000a81548160ff021916908360ff160217905550610c5a8482611770565b610c64818461194a565b8091505092915050565b6000806002600084815260200190815260200160002060009054906101000a900473ffffffffffffffffffffffffffffffffffffffff169050600073ffffffffffffffffffffffffffffffffffffffff168173ffffffffffffffffffffffffffffffffffffffff161415610d17576040517f08c379a0000000000000000000000000000000000000000000000000000000008152600401610d0e90612d1a565b60405180910390fd5b80915050919050565b60095481565b60008073ffffffffffffffffffffffffffffffffffffffff168273ffffffffffffffffffffffffffffffffffffffff161415610d97576040517f08c379a0000000000000000000000000000000000000000000000000000000008152600401610d8e90612cfa565b60405180910390fd5b600360008373ffffffffffffffffffffffffffffffffffffffff1673ffffffffffffffffffffffffffffffffffffffff168152602001908152602001600020549050919050565b610de6611354565b73ffffffffffffffffffffffffffffffffffffffff16610e04610e66565b73ffffffffffffffffffffffffffffffffffffffff1614610e5a576040517f08c379a0000000000000000000000000000000000000000000000000000000008152600401610e5190612dda565b60405180910390fd5b610e6460006119be565b565b6000600760009054906101000a900473ffffffffffffffffffffffffffffffffffffffff16905090565b60006001600b83604051610ea49190612afb565b908152602001604051809103902060009054906101000a900460ff1660ff16149050919050565b606060018054610eda906130f0565b80601f0160208091040260200160405190810160405280929190818152602001828054610f06906130f0565b8015610f535780601f10610f2857610100808354040283529160200191610f53565b820191906000526020600020905b815481529060010190602001808311610f3657829003601f168201915b5050505050905090565b610f6f610f68611354565b8383611a84565b5050565b610f84610f7e611354565b83611415565b610fc3576040517f08c379a0000000000000000000000000000000000000000000000000000000008152600401610fba90612e5a565b60405180910390fd5b610fcf84848484611bf1565b50505050565b6060610fe082611c4d565b9050919050565b610fef611354565b73ffffffffffffffffffffffffffffffffffffffff1661100d610e66565b73ffffffffffffffffffffffffffffffffffffffff1614611063576040517f08c379a000000000000000000000000000000000000000000000000000000000815260040161105a90612dda565b60405180910390fd5b600061106f60086112da565b905061107b600861175a565b6110858382611d9f565b61108f818361194a565b6001600b836040516110a19190612afb565b908152602001604051809103902060006101000a81548160ff021916908360ff160217905550505050565b6000600560008473ffffffffffffffffffffffffffffffffffffffff1673ffffffffffffffffffffffffffffffffffffffff16815260200190815260200160002060008373ffffffffffffffffffffffffffffffffffffffff1673ffffffffffffffffffffffffffffffffffffffff16815260200190815260200160002060009054906101000a900460ff16905092915050565b600d6020528060005260406000206000915090505481565b611180611354565b73ffffffffffffffffffffffffffffffffffffffff1661119e610e66565b73ffffffffffffffffffffffffffffffffffffffff16146111f4576040517f08c379a00000000000000000000000000000000000000000000000000000000081526004016111eb90612dda565b60405180910390fd5b600073ffffffffffffffffffffffffffffffffffffffff168173ffffffffffffffffffffffffffffffffffffffff161415611264576040517f08c379a000000000000000000000000000000000000000000000000000000000815260040161125b90612c1a565b60405180910390fd5b61126d816119be565b50565b60007f01ffc9a7000000000000000000000000000000000000000000000000000000007bffffffffffffffffffffffffffffffffffffffffffffffffffffffff1916827bffffffffffffffffffffffffffffffffffffffffffffffffffffffff1916149050919050565b600081600001549050919050565b60008073ffffffffffffffffffffffffffffffffffffffff166002600084815260200190815260200160002060009054906101000a900473ffffffffffffffffffffffffffffffffffffffff1673ffffffffffffffffffffffffffffffffffffffff1614159050919050565b600033905090565b816004600083815260200190815260200160002060006101000a81548173ffffffffffffffffffffffffffffffffffffffff021916908373ffffffffffffffffffffffffffffffffffffffff160217905550808273ffffffffffffffffffffffffffffffffffffffff166113cf83610c6e565b73ffffffffffffffffffffffffffffffffffffffff167f8c5be1e5ebec7d5bd14f71427d1e84f3dd0314c0f7b2291e5b200ac8c7c3b92560405160405180910390a45050565b6000611420826112e8565b61145f576040517f08c379a000000000000000000000000000000000000000000000000000000000815260040161145690612cba565b60405180910390fd5b600061146a83610c6e565b90508073ffffffffffffffffffffffffffffffffffffffff168473ffffffffffffffffffffffffffffffffffffffff1614806114ac57506114ab81856110cc565b5b806114ea57508373ffffffffffffffffffffffffffffffffffffffff166114d2846107a7565b73ffffffffffffffffffffffffffffffffffffffff16145b91505092915050565b8273ffffffffffffffffffffffffffffffffffffffff1661151382610c6e565b73ffffffffffffffffffffffffffffffffffffffff1614611569576040517f08c379a000000000000000000000000000000000000000000000000000000000815260040161156090612c3a565b60405180910390fd5b600073ffffffffffffffffffffffffffffffffffffffff168273ffffffffffffffffffffffffffffffffffffffff1614156115d9576040517f08c379a00000000000000000000000000000000000000000000000000000000081526004016115d090612c7a565b60405180910390fd5b6115e4838383611dbd565b6115ef60008261135c565b6001600360008573ffffffffffffffffffffffffffffffffffffffff1673ffffffffffffffffffffffffffffffffffffffff168152602001908152602001600020600082825461163f9190613006565b925050819055506001600360008473ffffffffffffffffffffffffffffffffffffffff1673ffffffffffffffffffffffffffffffffffffffff16815260200190815260200160002060008282546116969190612f7f565b92505081905550816002600083815260200190815260200160002060006101000a81548173ffffffffffffffffffffffffffffffffffffffff021916908373ffffffffffffffffffffffffffffffffffffffff160217905550808273ffffffffffffffffffffffffffffffffffffffff168473ffffffffffffffffffffffffffffffffffffffff167fddf252ad1be2c89b69c2b068fc378daa952ba7f163c4a11628f55a4df523b3ef60405160405180910390a4611755838383611dc2565b505050565b6001816000016000828254019250508190555050565b600073ffffffffffffffffffffffffffffffffffffffff168273ffffffffffffffffffffffffffffffffffffffff1614156117e0576040517f08c379a00000000000000000000000000000000000000000000000000000000081526004016117d790612d7a565b60405180910390fd5b6117e9816112e8565b15611829576040517f08c379a000000000000000000000000000000000000000000000000000000000815260040161182090612c5a565b60405180910390fd5b61183560008383611dbd565b6001600360008473ffffffffffffffffffffffffffffffffffffffff1673ffffffffffffffffffffffffffffffffffffffff16815260200190815260200160002060008282546118859190612f7f565b92505081905550816002600083815260200190815260200160002060006101000a81548173ffffffffffffffffffffffffffffffffffffffff021916908373ffffffffffffffffffffffffffffffffffffffff160217905550808273ffffffffffffffffffffffffffffffffffffffff16600073ffffffffffffffffffffffffffffffffffffffff167fddf252ad1be2c89b69c2b068fc378daa952ba7f163c4a11628f55a4df523b3ef60405160405180910390a461194660008383611dc2565b5050565b611953826112e8565b611992576040517f08c379a000000000000000000000000000000000000000000000000000000000815260040161198990612d3a565b60405180910390fd5b806006600084815260200190815260200160002090805190602001906119b992919061226d565b505050565b6000600760009054906101000a900473ffffffffffffffffffffffffffffffffffffffff16905081600760006101000a81548173ffffffffffffffffffffffffffffffffffffffff021916908373ffffffffffffffffffffffffffffffffffffffff1602179055508173ffffffffffffffffffffffffffffffffffffffff168173ffffffffffffffffffffffffffffffffffffffff167f8be0079c531659141344cd1fd0a4f28419497f9722a3daafe3b4186f6b6457e060405160405180910390a35050565b8173ffffffffffffffffffffffffffffffffffffffff168373ffffffffffffffffffffffffffffffffffffffff161415611af3576040517f08c379a0000000000000000000000000000000000000000000000000000000008152600401611aea90612c9a565b60405180910390fd5b80600560008573ffffffffffffffffffffffffffffffffffffffff1673ffffffffffffffffffffffffffffffffffffffff16815260200190815260200160002060008473ffffffffffffffffffffffffffffffffffffffff1673ffffffffffffffffffffffffffffffffffffffff16815260200190815260200160002060006101000a81548160ff0219169083151502179055508173ffffffffffffffffffffffffffffffffffffffff168373ffffffffffffffffffffffffffffffffffffffff167f17307eab39ab6107e8899845ad3d59bd9653f200f220920489ca2b5937696c3183604051611be49190612b9d565b60405180910390a3505050565b611bfc8484846114f3565b611c0884848484611dc7565b611c47576040517f08c379a0000000000000000000000000000000000000000000000000000000008152600401611c3e90612bfa565b60405180910390fd5b50505050565b6060611c58826112e8565b611c97576040517f08c379a0000000000000000000000000000000000000000000000000000000008152600401611c8e90612d9a565b60405180910390fd5b6000600660008481526020019081526020016000208054611cb7906130f0565b80601f0160208091040260200160405190810160405280929190818152602001828054611ce3906130f0565b8015611d305780601f10611d0557610100808354040283529160200191611d30565b820191906000526020600020905b815481529060010190602001808311611d1357829003601f168201915b505050505090506000611d41611f5e565b9050600081511415611d57578192505050611d9a565b600082511115611d8c578082604051602001611d74929190612b12565b60405160208183030381529060405292505050611d9a565b611d9584611f9b565b925050505b919050565b611db9828260405180602001604052806000815250612042565b5050565b505050565b505050565b6000611de88473ffffffffffffffffffffffffffffffffffffffff1661209d565b15611f51578373ffffffffffffffffffffffffffffffffffffffff1663150b7a02611e11611354565b8786866040518563ffffffff1660e01b8152600401611e339493929190612b51565b602060405180830381600087803b158015611e4d57600080fd5b505af1925050508015611e7e57506040513d601f19601f82011682018060405250810190611e7b9190612696565b60015b611f01573d8060008114611eae576040519150601f19603f3d011682016040523d82523d6000602084013e611eb3565b606091505b50600081511415611ef9576040517f08c379a0000000000000000000000000000000000000000000000000000000008152600401611ef090612bfa565b60405180910390fd5b805181602001fd5b63150b7a0260e01b7bffffffffffffffffffffffffffffffffffffffffffffffffffffffff1916817bffffffffffffffffffffffffffffffffffffffffffffffffffffffff191614915050611f56565b600190505b949350505050565b60606040518060400160405280600781526020017f697066733a2f2f00000000000000000000000000000000000000000000000000815250905090565b6060611fa6826112e8565b611fe5576040517f08c379a0000000000000000000000000000000000000000000000000000000008152600401611fdc90612e1a565b60405180910390fd5b6000611fef611f5e565b9050600081511161200f576040518060200160405280600081525061203a565b80612019846120c0565b60405160200161202a929190612b12565b6040516020818303038152906040525b915050919050565b61204c8383611770565b6120596000848484611dc7565b612098576040517f08c379a000000000000000000000000000000000000000000000000000000000815260040161208f90612bfa565b60405180910390fd5b505050565b6000808273ffffffffffffffffffffffffffffffffffffffff163b119050919050565b60606000821415612108576040518060400160405280600181526020017f30000000000000000000000000000000000000000000000000000000000000008152509050612268565b600082905060005b6000821461213a57808061212390613153565b915050600a826121339190612fd5565b9150612110565b60008167ffffffffffffffff81111561217c577f4e487b7100000000000000000000000000000000000000000000000000000000600052604160045260246000fd5b6040519080825280601f01601f1916602001820160405280156121ae5781602001600182028036833780820191505090505b5090505b60008514612261576001826121c79190613006565b9150600a856121d6919061319c565b60306121e29190612f7f565b60f81b81838151811061221e577f4e487b7100000000000000000000000000000000000000000000000000000000600052603260045260246000fd5b60200101907effffffffffffffffffffffffffffffffffffffffffffffffffffffffffffff1916908160001a905350600a8561225a9190612fd5565b94506121b2565b8093505050505b919050565b828054612279906130f0565b90600052602060002090601f01602090048101928261229b57600085556122e2565b82601f106122b457805160ff19168380011785556122e2565b828001600101855582156122e2579182015b828111156122e15782518255916020019190600101906122c6565b5b5090506122ef91906122f3565b5090565b5b8082111561230c5760008160009055506001016122f4565b5090565b600061232361231e84612eda565b612eb5565b90508281526020810184848401111561233b57600080fd5b6123468482856130ae565b509392505050565b600061236161235c84612f0b565b612eb5565b90508281526020810184848401111561237957600080fd5b6123848482856130ae565b509392505050565b60008135905061239b81613834565b92915050565b6000813590506123b08161384b565b92915050565b6000813590506123c581613862565b92915050565b6000815190506123da81613862565b92915050565b600082601f8301126123f157600080fd5b8135612401848260208601612310565b91505092915050565b600082601f83011261241b57600080fd5b813561242b84826020860161234e565b91505092915050565b60008135905061244381613879565b92915050565b60006020828403121561245b57600080fd5b60006124698482850161238c565b91505092915050565b6000806040838503121561248557600080fd5b60006124938582860161238c565b92505060206124a48582860161238c565b9150509250929050565b6000806000606084860312156124c357600080fd5b60006124d18682870161238c565b93505060206124e28682870161238c565b92505060406124f386828701612434565b9150509250925092565b6000806000806080858703121561251357600080fd5b60006125218782880161238c565b94505060206125328782880161238c565b935050604061254387828801612434565b925050606085013567ffffffffffffffff81111561256057600080fd5b61256c878288016123e0565b91505092959194509250565b6000806040838503121561258b57600080fd5b60006125998582860161238c565b92505060206125aa858286016123a1565b9150509250929050565b600080604083850312156125c757600080fd5b60006125d58582860161238c565b925050602083013567ffffffffffffffff8111156125f257600080fd5b6125fe8582860161240a565b9150509250929050565b6000806040838503121561261b57600080fd5b60006126298582860161238c565b925050602061263a85828601612434565b9150509250929050565b60006020828403121561265657600080fd5b6000612664848285016123a1565b91505092915050565b60006020828403121561267f57600080fd5b600061268d848285016123b6565b91505092915050565b6000602082840312156126a857600080fd5b60006126b6848285016123cb565b91505092915050565b6000602082840312156126d157600080fd5b600082013567ffffffffffffffff8111156126eb57600080fd5b6126f78482850161240a565b91505092915050565b60006020828403121561271257600080fd5b600061272084828501612434565b91505092915050565b6127328161303a565b82525050565b6127418161304c565b82525050565b600061275282612f3c565b61275c8185612f52565b935061276c8185602086016130bd565b61277581613289565b840191505092915050565b600061278b82612f47565b6127958185612f63565b93506127a58185602086016130bd565b6127ae81613289565b840191505092915050565b60006127c482612f47565b6127ce8185612f74565b93506127de8185602086016130bd565b80840191505092915050565b60006127f7600f83612f63565b91506128028261329a565b602082019050919050565b600061281a603283612f63565b9150612825826132c3565b604082019050919050565b600061283d602683612f63565b915061284882613312565b604082019050919050565b6000612860602583612f63565b915061286b82613361565b604082019050919050565b6000612883601c83612f63565b915061288e826133b0565b602082019050919050565b60006128a6602483612f63565b91506128b1826133d9565b604082019050919050565b60006128c9601983612f63565b91506128d482613428565b602082019050919050565b60006128ec602c83612f63565b91506128f782613451565b604082019050919050565b600061290f603883612f63565b915061291a826134a0565b604082019050919050565b6000612932602a83612f63565b915061293d826134ef565b604082019050919050565b6000612955602983612f63565b91506129608261353e565b604082019050919050565b6000612978602e83612f63565b91506129838261358d565b604082019050919050565b600061299b601983612f63565b91506129a6826135dc565b602082019050919050565b60006129be602083612f63565b91506129c982613605565b602082019050919050565b60006129e1603183612f63565b91506129ec8261362e565b604082019050919050565b6000612a04602c83612f63565b9150612a0f8261367d565b604082019050919050565b6000612a27602083612f63565b9150612a32826136cc565b602082019050919050565b6000612a4a601383612f63565b9150612a55826136f5565b602082019050919050565b6000612a6d602f83612f63565b9150612a788261371e565b604082019050919050565b6000612a90602183612f63565b9150612a9b8261376d565b604082019050919050565b6000612ab3603183612f63565b9150612abe826137bc565b604082019050919050565b6000612ad6601383612f63565b9150612ae18261380b565b602082019050919050565b612af5816130a4565b82525050565b6000612b0782846127b9565b915081905092915050565b6000612b1e82856127b9565b9150612b2a82846127b9565b91508190509392505050565b6000602082019050612b4b6000830184612729565b92915050565b6000608082019050612b666000830187612729565b612b736020830186612729565b612b806040830185612aec565b8181036060830152612b928184612747565b905095945050505050565b6000602082019050612bb26000830184612738565b92915050565b60006020820190508181036000830152612bd28184612780565b905092915050565b60006020820190508181036000830152612bf3816127ea565b9050919050565b60006020820190508181036000830152612c138161280d565b9050919050565b60006020820190508181036000830152612c3381612830565b9050919050565b60006020820190508181036000830152612c5381612853565b9050919050565b60006020820190508181036000830152612c7381612876565b9050919050565b60006020820190508181036000830152612c9381612899565b9050919050565b60006020820190508181036000830152612cb3816128bc565b9050919050565b60006020820190508181036000830152612cd3816128df565b9050919050565b60006020820190508181036000830152612cf381612902565b9050919050565b60006020820190508181036000830152612d1381612925565b9050919050565b60006020820190508181036000830152612d3381612948565b9050919050565b60006020820190508181036000830152612d538161296b565b9050919050565b60006020820190508181036000830152612d738161298e565b9050919050565b60006020820190508181036000830152612d93816129b1565b9050919050565b60006020820190508181036000830152612db3816129d4565b9050919050565b60006020820190508181036000830152612dd3816129f7565b9050919050565b60006020820190508181036000830152612df381612a1a565b9050919050565b60006020820190508181036000830152612e1381612a3d565b9050919050565b60006020820190508181036000830152612e3381612a60565b9050919050565b60006020820190508181036000830152612e5381612a83565b9050919050565b60006020820190508181036000830152612e7381612aa6565b9050919050565b60006020820190508181036000830152612e9381612ac9565b9050919050565b6000602082019050612eaf6000830184612aec565b92915050565b6000612ebf612ed0565b9050612ecb8282613122565b919050565b6000604051905090565b600067ffffffffffffffff821115612ef557612ef461325a565b5b612efe82613289565b9050602081019050919050565b600067ffffffffffffffff821115612f2657612f2561325a565b5b612f2f82613289565b9050602081019050919050565b600081519050919050565b600081519050919050565b600082825260208201905092915050565b600082825260208201905092915050565b600081905092915050565b6000612f8a826130a4565b9150612f95836130a4565b9250827fffffffffffffffffffffffffffffffffffffffffffffffffffffffffffffffff03821115612fca57612fc96131cd565b5b828201905092915050565b6000612fe0826130a4565b9150612feb836130a4565b925082612ffb57612ffa6131fc565b5b828204905092915050565b6000613011826130a4565b915061301c836130a4565b92508282101561302f5761302e6131cd565b5b828203905092915050565b600061304582613084565b9050919050565b60008115159050919050565b60007fffffffff0000000000000000000000000000000000000000000000000000000082169050919050565b600073ffffffffffffffffffffffffffffffffffffffff82169050919050565b6000819050919050565b82818337600083830152505050565b60005b838110156130db5780820151818401526020810190506130c0565b838111156130ea576000848401525b50505050565b6000600282049050600182168061310857607f821691505b6020821081141561311c5761311b61322b565b5b50919050565b61312b82613289565b810181811067ffffffffffffffff8211171561314a5761314961325a565b5b80604052505050565b600061315e826130a4565b91507fffffffffffffffffffffffffffffffffffffffffffffffffffffffffffffffff821415613191576131906131cd565b5b600182019050919050565b60006131a7826130a4565b91506131b2836130a4565b9250826131c2576131c16131fc565b5b828206905092915050565b7f4e487b7100000000000000000000000000000000000000000000000000000000600052601160045260246000fd5b7f4e487b7100000000000000000000000000000000000000000000000000000000600052601260045260246000fd5b7f4e487b7100000000000000000000000000000000000000000000000000000000600052602260045260246000fd5b7f4e487b7100000000000000000000000000000000000000000000000000000000600052604160045260246000fd5b6000601f19601f8301169050919050565b7f4e6f7420656e6f75676820455448210000000000000000000000000000000000600082015250565b7f4552433732313a207472616e7366657220746f206e6f6e20455243373231526560008201527f63656976657220696d706c656d656e7465720000000000000000000000000000602082015250565b7f4f776e61626c653a206e6577206f776e657220697320746865207a65726f206160008201527f6464726573730000000000000000000000000000000000000000000000000000602082015250565b7f4552433732313a207472616e736665722066726f6d20696e636f72726563742060008201527f6f776e6572000000000000000000000000000000000000000000000000000000602082015250565b7f4552433732313a20746f6b656e20616c7265616479206d696e74656400000000600082015250565b7f4552433732313a207472616e7366657220746f20746865207a65726f2061646460008201527f7265737300000000000000000000000000000000000000000000000000000000602082015250565b7f4552433732313a20617070726f766520746f2063616c6c657200000000000000600082015250565b7f4552433732313a206f70657261746f7220717565727920666f72206e6f6e657860008201527f697374656e7420746f6b656e0000000000000000000000000000000000000000602082015250565b7f4552433732313a20617070726f76652063616c6c6572206973206e6f74206f7760008201527f6e6572206e6f7220617070726f76656420666f7220616c6c0000000000000000602082015250565b7f4552433732313a2062616c616e636520717565727920666f7220746865207a6560008201527f726f206164647265737300000000000000000000000000000000000000000000602082015250565b7f4552433732313a206f776e657220717565727920666f72206e6f6e657869737460008201527f656e7420746f6b656e0000000000000000000000000000000000000000000000602082015250565b7f45524337323155524953746f726167653a2055524920736574206f66206e6f6e60008201527f6578697374656e7420746f6b656e000000000000000000000000000000000000602082015250565b7f457863656564206d6178204e4654207065722077616c6c657400000000000000600082015250565b7f4552433732313a206d696e7420746f20746865207a65726f2061646472657373600082015250565b7f45524337323155524953746f726167653a2055524920717565727920666f722060008201527f6e6f6e6578697374656e7420746f6b656e000000000000000000000000000000602082015250565b7f4552433732313a20617070726f76656420717565727920666f72206e6f6e657860008201527f697374656e7420746f6b656e0000000000000000000000000000000000000000602082015250565b7f4f776e61626c653a2063616c6c6572206973206e6f7420746865206f776e6572600082015250565b7f4d696e74696e67206e6f7420656e61626c656400000000000000000000000000600082015250565b7f4552433732314d657461646174613a2055524920717565727920666f72206e6f60008201527f6e6578697374656e7420746f6b656e0000000000000000000000000000000000602082015250565b7f4552433732313a20617070726f76616c20746f2063757272656e74206f776e6560008201527f7200000000000000000000000000000000000000000000000000000000000000602082015250565b7f4552433732313a207472616e736665722063616c6c6572206973206e6f74206f60008201527f776e6572206e6f7220617070726f766564000000000000000000000000000000602082015250565b7f4e465420616c7265616479206d696e7465642100000000000000000000000000600082015250565b61383d8161303a565b811461384857600080fd5b50565b6138548161304c565b811461385f57600080fd5b50565b61386b81613058565b811461387657600080fd5b50565b613882816130a4565b811461388d57600080fd5b5056fea2646970667358221220995e9e38a53d5a923bcc5573462e8de12bea43a8a079ed7c393aa36d4a94668c64736f6c63430008040033",
  "linkReferences": {},
  "deployedLinkReferences": {}
}